S02400004D43315F4D61737465725F47726164756174696F6E50726F6A6563742E7372656330
S11300000C942A000C9434000C9434000C943400A6
S11300100C9434000C9434000C9434000C9434008C
S11300200C9434000C9434000C9434000C9434007C
S11300300C9434000C9434000C9434000C9434006C
S11300400C9434000C9434000C9434000C9434005C
S11300500C94340011241FBECFE5D8E0DEBFCDBF21
S11300600E94E8010C9442020C9400004423B9F16C
S1130070413009F06BC0813089F028F08230C9F03A
S1130080833011F108952AB381E090E002C0880F13
S1130090991F6A95E2F7822B8ABB089527B381E002
S11300A090E002C0880F991F6A95E2F7822B87BB04
S11300B0089524B381E090E002C0880F991F6A95E7
S11300C0E2F7822B84BB089521B381E090E002C063
S11300D0880F991F6A95E2F7822B81BB08958130BE
S11300E091F028F08230D9F0833029F108952AB3B1
S11300F081E090E002C0880F991F6A95E2F780952D
S113010082238ABB089527B381E090E002C0880F60
S1130110991F6A95E2F78095822387BB089524B3DB
S113012081E090E002C0880F991F6A95E2F78095FC
S1130130822384BB089521B381E090E002C0880F3C
S1130140991F6A95E2F78095822381BB0895442321
S1130150B9F1413009F06BC0813089F028F0823068
S1130160C9F0833011F108952BB381E090E002C00F
S1130170880F991F6A95E2F7822B8BBB089528B3E9
S113018081E090E002C0880F991F6A95E2F7822B04
S113019088BB089525B381E090E002C0880F991FC1
S11301A06A95E2F7822B85BB089522B381E090E043
S11301B002C0880F991F6A95E2F7822B82BB0895CB
S11301C0813091F028F08230D9F0833029F10895FC
S11301D02BB381E090E002C0880F991F6A95E2F783
S11301E0809582238BBB089528B381E090E002C000
S11301F0880F991F6A95E2F78095822388BB08953A
S113020025B381E090E002C0880F991F6A95E2F758
S11302108095822385BB089522B381E090E002C0DB
S1130220880F991F6A95E2F78095822382BB08950F
S1130230CF93C82F40E061E081E00E94A70040E036
S113024062E081E00E94A70040E063E081E00E9458
S1130250A7008BB39C2F907F8F70892B8BBB41E0C1
S113026063E081E00E94A7008FE99FE00197F1F726
S113027000C0000040E063E081E00E94A70020E1AC
S1130280C29FC00111249BB39F70892B8BBB41E09B
S113029063E081E00E94A7008FE39CE90197F1F7F6
S11302A000C0000040E063E081E00E94A7008FE10D
S11302B09EE40197F1F700C00000CF91089541E05A
S11302C061E081E00E94360041E062E081E00E944A
S11302D0360041E063E081E00E94360041E064E0E2
S11302E080E00E94360041E065E080E00E94360034
S11302F041E066E080E00E94360041E067E080E093
S11303000E9436002FEF81EE94E02150804090400F
S1130310E1F700C0000083E30E94180182E30E9419
S1130320180188E20E9418018CE00E94180181E003
S11303300E94180186E00E94180182E00E941801C0
S11303400895CF93C82F41E061E081E00E94A700A7
S113035040E062E081E00E94A70040E063E081E0C9
S11303600E94A7008BB39C2F907F8F70892B8BBB2F
S113037041E063E081E00E94A7008FE99FE00197DC
S1130380F1F700C0000040E063E081E00E94A700B4
S113039020E1C29FC00111249BB39F70892B8BBBAA
S11303A041E063E081E00E94A7008FE39CE90197AC
S11303B0F1F700C0000040E063E081E00E94A70084
S11303C08FE19EE40197F1F700C00000CF910895FA
S11303D00E942C020E945F010E9404020E942102DA
S11303E02FEF83ED90E3215080409040E1F700C06F
S11303F000000E943E02C82F8823D9F30E94A10165
S11304008C2F0E942702F5CF40E066E081E00E9435
S1130410360041E065E081E00E94360041E067E09B
S113042081E00E94360041E064E081E00E943600F1
S11304308DB183658DB941E064E081E00E94A7003D
S1130440089540E064E081E00E94A70008958FB918
S1130450779BFECF8FB1089581B3826081BB81B356
S11304608E7F81BB8AB180618AB98AB188608AB97A
S113047080B5866880BD87E689B908955F9BFECF05
S10B04808CB10895F894FFCF3C
S9030000FC
